:020000040000FA
:0403000001EF1AF0FF
:10100000003D3D3D3D3D3D3D3D3D3D3D3D3D3D3D4D
:101010003D3D3D3D3D3D3D3D3D3D3D3D3D3D3D3D00
:101020003D3D3D3D3D3D3D3D3D0D0A0054656D70EE
:101030003A2025352E316643005741524E494E47DE
:1010400021210D0A00543A25352E3166430D0A0040
:10105000474F4F440D0A00464154484900494E4607
:10106000004E414E00696E66006E616E006C660057
:01107000007F
:10107200000E00019B6F000E9A6F60C0ACF061C061
:10108200ADF062C0AEF063C0AFF0AFAF16D0000EED
:101092009B6F010E9A6FACC001F0ADC002F0AEC002
:1010A20003F0AFC004F02CEC1CF001C0ACF002C0A5
:1010B200ADF003C0AEF004C0AFF0000E0001B36F9C
:1010C200000EB26FE6C09FF0E7C0A0F09A519B11EC
:1010D200D8A402D07EA413D09A519B11D8A404D0D4
:1010E200000E856F2B0E03D0000E856F2D0E846FC0
:1010F20084C000F1B24BB32B9F07D8A0A007ACC0AD
:1011020001F0ADC002F0AEC003F0AFC004F0EBECF2
:1011120016F001040210D8A44CD0BF0E656EFF0E6B
:10112200666E6450676E686A65506726665068220C
:10113200685006E11A0E675CD8B002D0010E01D0E9
:10114200000E0001866F876B86518711D8B40DD0CF
:10115200000EB225016E010EB321026E5D0E036E0A
:10116200100E046E82EC1AF00CD0000EB225016E45
:10117200010EB321026E650E036E100E046E82EC38
:101182001AF00001FD0E9F27FF0EA0235EC011F092
:101192005FC012F0000E136E010E146E9FC015F0A8
:1011A200A0C016F04FEC18F011C05EF012C05FF054
:1011B2001200ACC001F0ADC002F0AEC003F0AFC08F
:1011C20004F0EBEC16F001500210D8A435D0BF0E9B
:1011D200656EFF0E666E6450676E686A65506726BC
:1011E20066506822685006E11A0E675CD8B002D0D9
:1011F200010E01D0000E0001886F896B88518911A0
:10120200D8B40DD0000EB225016E010EB321026ECC
:10121200610E036E100E046E82EC1AF0B2D7000E4D
:10122200B225016E010EB321026E690E036E100E1D
:10123200046E82EC1AF0A5D7000E0001B46F000E06
:10124200B56F800EB66F3F0EB76F000EB16F000E16
:10125200B06FACC001F0ADC002F0AEC003F0AFC0E1
:1012620004F0000E056E000E066E000E076E000EF4
:10127200086E9AEC18F0D8A01ED076D0B4C039F01F
:10128200B5C03AF0B6C03BF0B7C03CF0000E3D6EC0
:10129200000E3E6E200E3F6E410E406E39EC0FF096
:1012A20039C0B4F03AC0B5F03BC0B6F03CC0B7F0BC
:1012B2000001B04BB12BACC052F0ADC053F0AEC088
:1012C20054F0AFC055F0000E3D6E000E3E6E200E83
:1012D2003F6E410E406EB4C039F0B5C03AF0B6C0B0
:1012E2003BF0B7C03CF039EC0FF039C056F03AC0D1
:1012F20057F03BC058F03CC059F083EC16F0D8A030
:101302001FD0BCD7B4C015F0B5C016F0B6C017F0E8
:10131200B7C018F0000E196E000E1A6E200E1B6E6A
:10132200410E1C6E68EC12F015C0B4F016C0B5F098
:1013320017C0B6F018C0B7F00001B007D8A0B107C7
:10134200ACC052F0ADC053F0AEC054F0AFC055F0D7
:10135200B4C056F0B5C057F0B6C058F0B7C059F097
:1013620083EC16F0D8A0CED764C007F0086A23EC4D
:101372001BF007500001A16FA1C09EF0670EA119DA
:10138200D8A419D07C507D10D8A404D0000E7D6E54
:10139200010E7C6E7DBE05D07D5008E17C04D8B084
:1013A20005D0000E9D6F060E9C6F08D07CC09CF08D
:1013B2007DC09DF003D07DAEF9D7F3D7670EA1199A
:1013C200D8A422D0B1AF06D0FC0EB05DFF0EB15949
:1013D200D8A018D0FF0E656EFF0E666E9CC067F037
:1013E2009DC068F06550672666506822B051675C00
:1013F2006850800A696EB151800A6958D8A002D03B
:10140200660E01D0650E9E6F9CC094F09DC095F053
:10141200670EA119D8A405D0660E9E19D8B4B1AF33
:1014220002D0944B952B660E9E19D8A416D0B1AF5C
:101432000CD0000EB46F000EB56F800EB66F3F0E6B
:10144200B76F000EB16F000EB06F670EA119D8B45E
:1014520004D0B0519427B1519523000EAB6F000E0A
:10146200AA6FACC0A2F0ADC0A3F0AEC0A4F0AFC0F2
:10147200A5F0B4C080F0B5C081F0B6C082F0B7C0AC
:1014820083F07BD0A2C015F0A3C016F0A4C017F061
:10149200A5C018F0B4C019F0B5C01AF0B6C01BF060
:1014A200B7C01CF068EC12F015C02EF016C02FF079
:1014B20017C030F018C031F0ACEC13F02EC0A6F01B
:1014C2002FC0A7F030C0A8F031C0A9F0A6C001F02B
:1014D200A7C002F0A8C003F0A9C004F051EC17F0B5
:1014E20001C098F002C099F0A2C052F0A3C053F01C
:1014F200A4C054F0A5C055F0B4C03DF0B5C03EF054
:10150200B6C03FF0B7C040F0A6C039F0A7C03AF06D
:10151200A8C03BF0A9C03CF039EC0FF039C056F03E
:101522003AC057F03BC058F03CC059F049EC1BF0B0
:1015320052C0A2F053C0A3F054C0A4F055C0A5F00D
:10154200B4C015F0B5C016F0B6C017F0B7C018F0A9
:10155200000E196E000E1A6E200E1B6E410E1C6ECE
:1015620068EC12F015C0B4F016C0B5F017C0B6F0B2
:1015720018C0B7F00001AA4BAB2B9451AA5DAB5136
:10158200800A656E9551800A6558D8A07BD7B4C091
:1015920039F0B5C03AF0B6C03BF0B7C03CF0000E2F
:1015A2003D6E000E3E6EA00E3F6E400E406E39EC58
:1015B2000FF039C0A6F03AC0A7F03BC0A8F03CC07B
:1015C200A9F0A2C052F0A3C053F0A4C054F0A5C029
:1015D20055F0A6C056F0A7C057F0A8C058F0A9C051
:1015E20059F083EC16F0D8B003D0000E000118D0E9
:1015F200A2C001F0A3C002F0A4C003F0A5C004F091
:10160200A6C005F0A7C006F0A8C007F0A9C008F060
:101612009AEC18F0D8A00BD0000198B108D0000EB7
:10162200A66F000EA76F000EA86F000EA96FACC0C8
:1016320001F0ADC002F0AEC003F0AFC004F0A6C02E
:1016420005F0A7C006F0A8C007F0A9C008F0E2ECB8
:1016520010F001C0A2F002C0A3F003C0A4F004C0C5
:10166200A5F080C0B4F081C0B5F082C0B6F083C0EE
:10167200B7F0650E00019E19D8B405D0B0C096F03F
:10168200B1C097F004D0000E976F000E966F000E57
:10169200936F000E926F000E916F000E906F000E0E
:1016A200AB6F000EAA6FC7D0A2C015F0A3C016F090
:1016B200A4C017F0A5C018F0B4C019F0B5C01AF054
:1016C200B6C01BF0B7C01CF068EC12F015C02EF0CB
:1016D20016C02FF017C030F018C031F0ACEC13F088
:1016E2002EC0A6F02FC0A7F030C0A8F031C0A9F0DC
:1016F200A6C001F0A7C002F0A8C003F0A9C004F080
:1017020051EC17F001C098F002C099F07EB80DD0EC
:10171200000198519911D8A408D0670EA119D8B424
:1017220097AF03D0904B912B3AD000019251931175
:10173200D8B497AF22D0000EB225D96E010EB321D4
:10174200DA6E2E0EDF6EB24BB32B9F07D8A0A00726
:10175200000E936F010E926F10D0000EB225D96E5B
:10176200010EB321DA6E300EDF6EB24BB32B9F0740
:10177200D8A0A0079007D8A0910790519111D8A4A2
:10178200ECD7000EB225D96E010EB321DA6E985154
:10179200300FDF6EB24BB32B9F07D8A0A007A2C0B9
:1017A20052F0A3C053F0A4C054F0A5C055F0B4C089
:1017B2003DF0B5C03EF0B6C03FF0B7C040F0A6C0A5
:1017C20039F0A7C03AF0A8C03BF0A9C03CF039EC10
:1017D2000FF039C056F03AC057F03BC058F03CC049
:1017E20059F049EC1BF052C0A2F053C0A3F054C010
:1017F200A4F055C0A5F0B4C015F0B5C016F0B6C03F
:1018020017F0B7C018F0000E196E000E1A6E200EF7
:101812001B6E410E1C6E68EC12F015C0B4F016C0BF
:10182200B5F017C0B6F018C0B7F000019607D8A0FF
:101832009707AA4BAB2B9451AA5DAB51800A656EF8
:101842009551800A6558D8B008D0B3BF2DD7B3518F
:1018520004E14B0EB25DD8A027D792519311D8B4B0
:101862007EA80AD0000EB225D96E010EB321DA6E1F
:101872002E0EDF6EB24BB32B000EB225D96E010EC7
:10188200B321DA6E000EDF6E650E9E19D8A47ED4E7
:10189200000EAB6F4F0EAA6F000EAA25D96E010E75
:1018A200AB21DA6E000EDF6E000E9B6F000E9A6F98
:1018B200B1AF08D0000E9B6F010E9A6FB06DB11FD1
:1018C200D8B0B12B000E9D6F020E9C6F2BD0AA07D1
:1018D200D8A0AB07000EAA25D96E010EAB21DA6E95
:1018E200B0C001F0B1C002F0000E046E0A0E036E29
:1018F20062EC19F00150300FDF6EB0C001F0B1C0E0
:1019020002F0000E046E0A0E036EDFEC18F001C046
:10191200B0F002C0B1F000019C07D8A09D079F075C
:10192200D8A0A007B051B111D8A4D1D79DBF05D07E
:101932009D51CDE19C05D8B0CAD7AA07D8A0AB0764
:101942009A519B11D8A404D0000E8B6F2B0E03D09A
:10195200000E8B6F2D0E8A6F000EAA25D96E010E16
:10196200AB21DA6E8AC0DFFF9F07D8A0A007AA07C3
:10197200D8A0AB07BF0E656EFF0E666E6450676E31
:10198200686A6550672666506822685006E11A0E3A
:10199200675CD8B002D0010E01D0000E8E6F8F6B43
:1019A2008E518F11D8A404D0000E8D6F650E03D016
:1019B200000E8D6F450E8C6F000EAA25D96E010E9A
:1019C200AB21DA6E8CC0DFFF9F07D8A0A007000E04
:1019D200B225016E010EB321026E000EAA25036E1E
:1019E200010EAB21046E82EC1AF0C7EF08F06CC056
:1019F200D9FF6DC0DAFFDECFF6FFDDCFF7FF0800BB
:101A0200F550250AD8A41AD26CC0D9FF6DC0DAFFEE
:101A1200DE2A000EDD22000E0001E76F000EE66FE7
:101A2200E6C07EF0E7C07FF07C687D686CC0D9FFBD
:101A32006DC0DAFFDECFF6FFDDCFF7FF0800F5500D
:101A42002A0AD8A423D06CC0D9FF6DC0DAFFDE2ADF
:101A5200000EDD226EC0D9FF6FC0DAFFDFCF70F05B
:101A6200020EDE26DFCF71F0000EDD2270C0D9FF3C
:101A720071C0DAFFDECFE6F0DDCFE7F0E7AF40D0AE
:101A82007E80E66DE71FD8B0E72B3AD06CC0D9FF55
:101A92006DC0DAFFDECF08F0DDCF09F0E3EC15F020
:101AA20008C0E6F009C0E7F007D06CC0D9FF6DC0EE
:101AB200DAFFDE2A000EDD22D00E706EFF0E716E8E
:101AC2006CC0D9FF6DC0DAFFDECFF6FFDDCFF7FFC6
:101AD2000800F550726E736A70507226715073224C
:101AE200735006E10A0E725CD8B002D0010E01D02A
:101AF200000E0001B86FB96BB851B911D8A4D5D78F
:101B02006CC0D9FF6DC0DAFFDECFF6FFDDCFF7FF85
:101B12000800F5502E0AD8A46ED0000E7D6E000E7D
:101B22007C6E6CC0D9FF6DC0DAFFDE2A000EDD22AA
:101B32006CC0D9FF6DC0DAFFDECFF6FFDDCFF7FF55
:101B42000800F5502A0AD8A41CD06CC0D9FF6DC079
:101B5200DAFFDE2A000EDD226EC0D9FF6FC0DAFF87
:101B6200DFCF70F0020EDE26DFCF71F0000EDD2235
:101B720070C0D9FF71C0DAFFDECF7CF0DDCF7DF01F
:101B82003AD06CC0D9FF6DC0DAFFDECF08F0DDCFEE
:101B920009F0E3EC15F008C07CF009C07DF007D035
:101BA2006CC0D9FF6DC0DAFFDE2A000EDD22D00E36
:101BB200706EFF0E716E6CC0D9FF6DC0DAFFDECFA2
:101BC200F6FFDDCFF7FF0800F550726E736A7050B2
:101BD200722671507322735006E10A0E725CD8B0FD
:101BE20002D0010E01D0000E0001BA6FBB6BBA51D8
:101BF200BB11D8A4D5D76CC0D9FF6DC0DAFFDECF38
:101C0200F6FFDDCFF7FF0800F550076E086A23ECF8
:101C12001BF007500001C26FC251D8B435D06CC05E
:101C2200D9FF6DC0DAFFDECF70F0DDCF71F0010EAB
:101C32007026000E712270C0F6FF71C0F7FF080017
:101C4200F550076E086A23EC1BF007500001C36FC2
:101C5200C351D8B419D06CC0D9FF6DC0DAFFDECF42
:101C620070F0DDCF71F0020E7026000E712270C08E
:101C7200F6FF71C0F7FF0800F550076E086A23EC03
:101C82001BF007500001C46F660EC219D8A43FD0E2
:101C92006CC0D9FF6DC0DAFFDECFF6FFDDCFF7FFF4
:101CA2000800F5CFC5F06CC0D9FF6DC0DAFFDE2A9F
:101CB200000EDD226EC0D9FF6FC0DAFFDFCF70F0F9
:101CC200040EDE26DFCF71F0000EDD2270C0D9FFD8
:101CD20071C0DAFFDECFBEF0DECFBFF0DECFC0F0E4
:101CE200DECFC1F06AC05EF06BC05FF0BEC060F0D4
:101CF200BFC061F0C0C062F0C1C063F0C5C064F093
:101D020039EC08F05EC06AF05FC06BF01200C20EE0
:101D1200016E000E026E6D0E036E100E046E000E4A
:101D2200066E020E056EAEEC17F001500210D8A43A
:101D320056D06CC0D9FF6DC0DAFFDECF70F0DDCFB8
:101D420071F0010E7026000E712270C0F6FF71C094
:101D5200F7FF0800F5CFC5F0BF0E706EFF0E716E73
:101D62006CC0D9FF6DC0DAFFDECFF6FFDDCFF7FF23
:101D72000800F550726E736A7050722671507322A9
:101D8200735006E11A0E725CD8B002D0010E01D077
:101D9200000E0001BC6FBD6BBC51BD116EC0D9FFFE
:101DA2006FC0DAFFDFCF70F0040EDE26DFCF71F0F6
:101DB200000EDD2270C0D9FF71C0DAFFDECFBEF0A7
:101DC200DECFBFF0DECFC0F0DECFC1F0020E6CC0BE
:101DD200D9FF6DC0DAFFDE26000EDD2283D76CC08C
:101DE200D9FF6DC0DAFFDECFF6FFDDCFF7FF0800C7
:101DF200F550250AD8A416D06CC0D9FF6DC0DAFF01
:101E0200DE2A000EDD22000E026E250E016E6AC071
:101E120003F06BC004F0FFEC17F0000E6B6E010EC6
:101E22006A6E12006CC0D9FF6DC0DAFFDE2A000EA6
:101E3200DD22000E6B6E000E6A6E12006CC0D9FFBE
:101E42006DC0DAFFDECFF6FFDDCFF7FF0800F550F9
:101E5200016E026A6AC003F06BC004F0FFEC17F077
:101E62006CC0D9FF6DC0DAFFDE2A000EDD22D5D7A5
:101E72003C50800B456E3C503C244B6E3BBE4B802D
:101E82004B50D8B40DD04B28D8A408D0000E396ED0
:101E9200000E3A6E000E3B6E000E3C6E3B8E08D07A
:101EA200000E396E000E3A6E000E3B6E000E3C6E56
:101EB2004050800B451A405040244A6E3FBE4A8033
:101EC2004A50D8B40DD04A28D8A408D0000E3D6E8E
:101ED200000E3E6E000E3F6E000E406E3F8E08D02A
:101EE200000E3D6E000E3E6E000E3F6E000E406E06
:101EF2004A50D8B403D04B50D8A409D0000E396E42
:101F0200000E3A6E000E3B6E000E3C6E12003F5009
:101F12003902F3CF50F0F4CF51F05050466E476A79
:101F2200486A496A51504C6E4D6A4E6A4F6A3E5039
:101F32003A02F3CF50F0F4CF51F050504626000E43
:101F420047224822492251504C26000E4D224E2251
:101F52004F223D503B02F3CF50F0F4CF51F050509E
:101F62004626000E47224822492251504C26000E96
:101F72004D224E224F2248C049F047C048F046C089
:101F820047F0466A3D503A02F3CF50F0F4CF51F099
:101F92005050462651504722000E4822000E492238
:101FA2003E503902F3CF50F0F4CF51F05050462654
:101FB20051504722000E4822000E492248C049F0E3
:101FC20047C048F046C047F0466A3D503902F3CF59
:101FD20050F0F4CF51F05050462651504722000E97
:101FE2004822000E49223F503A02F3CF50F0F4CF7C
:101FF20051F050504C2651504D22000E4E22000EF0
:102002004F223E503B02F3CF50F0F4CF51F05050EC
:102012004C2651504D22000E4E22000E4F223F50B0
:102022003B02F3CF50F0F4CF51F05050416E51507B
:10203200426E436A446A43C044F042C043F041C026
:1020420042F0416A41504C2642504D2243504E22AA
:1020520044504F2246C041F047C042F048C043F0CE
:1020620049C044F0190E05D0D8904432433242326E
:102072004132E82EF9D741504C2642504D2243506E
:102082004E2244504F2248C049F047C048F046C053
:1020920047F0466A4A504BC041F0426A4126000E60
:1020A2004222820E4124506EFF0E4220516E0FD00A
:1020B200D8904C364D364E364F3649BE4C80D8906D
:1020C20046364736483649365006D8A051064EAEF7
:1020D200EFD7000E4A6E49AE17D0FF0E4614416E7E
:1020E200FF0E4714426EFF0E4814436E7F0E4914D2
:1020F200446E4150421043104410D8B403D0010E34
:102102004A6E02D04CB0FBD74A50D8B41FD0010E51
:102112004C26000E4D224E224F224FA017D04CC00B
:1021220041F04DC042F04EC043F04FC044F0443441
:10213200443243324232413241C04CF042C04DF04F
:1021420043C04EF044C04FF0504A512A51BE0DD008
:10215200515003E15028D8A008D0000E4C6E000E5A
:102162004D6E800E4E6E7F0E20D051BE05D0515066
:102172000EE15004D8B00BD0000E4C6E000E4D6E26
:10218200000E4E6E000E4F6E000E456E0FD050C008
:102192004BF0FF0E4C16FF0E4D167F0E4E16000E24
:1021A2004F164BB04E8ED8904B304F6E45504F125B
:1021B2004CC039F04DC03AF04EC03BF04FC03CF03D
:1021C20012000450800B0D6E045004240F6E03BEE7
:1021D2000F800F50D8B40DD00F28D8A408D0000E0D
:1021E200016E000E026E000E036E000E046E038E70
:1021F20006D0000E016E000E026E000E036E000E7F
:10220200046E0850800B0E6E0D500E18D8A40D8C63
:10221200085008240E6E07BE0E800E50D8B40DD0A2
:102222000E28D8A408D0000E056E000E066E000E11
:10223200076E000E086E078E06D0000E056E000EA9
:10224200066E000E076E000E086E0F500E5CD8B0C0
:1022520022D00DAC02D0800E0D1A0FC010F00EC0AD
:102262000FF010C00EF001C010F005C001F010C058
:1022720005F002C010F006C002F010C006F003C064
:1022820010F007C003F010C007F004C010F008C03F
:1022920004F010C008F0000E106E0F500EC009F0CE
:1022A2000A6A095E000E0A5A0ABE2CD00A5004E1DC
:1022B2001A0E095CD8A026D0015002100310041097
:1022C200D8B402D0010E01D0000E106E000E016EC5
:1022D200000E026E000E036E000E046E0EC00FF0B2
:1022E20015D010A005D0D89010300109106E02D080
:1022F200D890103201B0108E04340432033202320C
:1023020001320F2A0E500F5CD8A0EBD70DBC28D09B
:102312000F50D8A409D0000E016E000E026E000EFE
:10232200036E000E046E12000550012606500222B2
:10233200075003220850042204A071D010A005D037
:10234200D89010300109106E02D0D890103201B02E
:10235200108E043404320332023201320F2A5FD06B
:102362000550015C06500258075003580450800A79
:10237200096E0850800A0958D8B025D00150055C72
:10238200096E025006580A6E035007580B6E04502D
:1023920008580C6EFF0E0924016EFF0E0A20026E11
:1023A200FF0E0B20036EFF0E0C20046E800E0D1A22
:1023B200106C1050D8A40FD0010E0126000E02227C
:1023C2000322042208D00550015E0650025A07502B
:1023D200035A0850045A0150021003100410D8A4E2
:1023E2001CD01050D8A419D0000E016E000E026E3F
:1023F200000E036E000E046E1200D89001360236F3
:102402000336043610BE018010A002D0D88001D05D
:10241200D89010360F50D8A40F0603AEEED7000E98
:102422000E6E10AE0BD010C009F07F0E0916D8B494
:1024320003D0010E0E6E02D001B0FBD70E50D8B4FD
:1024420020D0010E0126000E02220322042204A043
:1024520018D001C009F002C00AF003C00BF004C09A
:102462000CF00C340C320B320A32093209C001F082
:102472000AC002F00BC003F00CC004F00F28D8A46D
:102482000F2A0F28D8B403D00F50D8A40DD0000EB5
:10249200016E000E026E000E036E000E046E0F50EF
:1024A200D8A402D0000E0D6E0FA002D0038E01D070
:1024B200039ED8900F30046E0DBE048E01C001F051
:1024C20002C002F003C003F004C004F0120018506E
:1024D200800B256E185018242C6E17BE2C802C50A1
:1024E200D8B40DD02C28D8A408D0000E156E000E3A
:1024F200166E000E176E000E186E178E06D0000EA6
:10250200156E000E166E000E176E000E186E1C5021
:10251200800B251A1C501C242D6E1BBE2D802D50A5
:10252200D8B40DD02D28D8A408D0000E196E000EF4
:102532001A6E000E1B6E000E1C6E1B8E06D0000E55
:10254200196E000E1A6E000E1B6E000E1C6E1950D4
:102552001A101B101C10D8A417D0000E156E000EF6
:10256200166E000E176E000E186E800E17127F0E7A
:1025720018122550181215C015F016C016F017C003
:1025820017F018C018F012002C50D8A409D0000E71
:10259200156E000E166E000E176E000E186E1200EB
:1025A2002D502CC01DF01E6A1D5E000E1E5A7F0E9D
:1025B2001D24266E000E1E20276E15C021F016C0A7
:1025C20022F017C023F018C024F0000E156E000E82
:1025D200166E000E176E000E186E000E286E000E9C
:1025E200296E000E2A6E000E2B6E000E2D6E28D064
:1025F2002D50D8B411D0D890213622362336243625
:10260200D89015361636173618362BBE1580D89048
:10261200283629362A362B361950215C1A50225870
:102622001B5023581C502458D8A009D02B8C195069
:10263200215E1A50225A1B50235A1C50245A2D2A0A
:10264200190E2D64D5D72150221023102410D8B48E
:1026520011D028800FD0D890153616361736183676
:102662002BBE1580D890283629362A362B362606D8
:10267200D8A0270617AEEFD7000E2D6E2BAE17D0BF
:10268200FF0E28141D6EFF0E29141E6EFF0E2A1453
:102692001F6E7F0E2B14206E1D501E101F10201057
:1026A200D8B403D0010E2D6E02D015B0FBD72D5039
:1026B200D8B41FD0010E1526000E1622172218229A
:1026C20018A017D015C01DF016C01EF017C01FF0BD
:1026D20018C020F0203420321F321E321D321DC09D
:1026E20015F01EC016F01FC017F020C018F0264AC1
:1026F200272A27BE10D0275003E12628D8A00BD0C6
:10270200000E276E2668000E156E000E166E000E65
:10271200176E000E186E27BE05D0275011E1260451
:10272200D8B00ED0000E276E000E266E000E156E6B
:10273200000E166E000E176E000E186E000E256E3D
:1027420026C02CF02CA002D0178E01D0179ED89054
:102752002C30186E0ED7D8C03EF0D9C03FF0DAC088
:1027620040F0DBC041F02EC03EF02FC03FF030C041
:1027720040F031C041F0810E326EFF0E336E3EC02A
:1027820034F03FC035F040C036F041C037F0180E8B
:1027920005D0D8903732363235323432E82EF9D776
:1027A200345032243C6E000E33203D6E3DBE0FD0BD
:1027B2003D5004E1170E3C5CD8A009D02EC02EF08B
:1027C2002FC02FF030C030F031C031F012003DBECA
:1027D2005ED03CC032F0FF0E336EFF0E346E7F0EC1
:1027E200356E000E366E326601D007D03634363280
:1027F200353234323332322EF6D733C038F034C069
:1028020039F035C03AF036C03BF038503E14326EE3
:1028120039503F14336E3A504014346E3B504114D9
:10282200356E3250331034103510D8B4C7D73EC08D
:1028320032F03FC033F040C034F041C035F0200EDA
:1028420005D0D8903532343233323232E82EF9D7CD
:102852003250331034103510D8B408D038503E26D8
:1028620039503F223A5040223B504122381C326EAE
:10287200391C336E3A1C346E3B1C356E32503E1698
:1028820033503F16345040163550411636D03EC0B4
:1028920032F03FC033F040C034F041C035F0200E7A
:1028A20005D0D8903532343233323232E82EF9D76D
:1028B2003250331034103510D8A408D0000E3E6EBA
:1028C200000E3F6E000E406E000E16D0D8903E34C1
:1028D200326E3F34336E4034346E4134356E325092
:1028E200331034103510D8B408D0000E3E6E000EEE
:1028F2003F6E800E406EBF0E416E3EC02EF03FC056
:102902002FF040C030F041C031F01200000EF26EE4
:10291200E3EC1BF0B8EC1CF0D0EC1CF0FDEC1AF070
:10292200010E096E000EAAEC1BF00C0ECFEC19F092
:102932009AEC19F0440E026E100E036E2CEC1AF093
:10294200440E026E100E036E2CEC1AF00C0ECFEC3D
:1029520019F00400000E21EC19F02EC039F02FC03E
:102962003AF030C03BF031C03CF0000E3D6E000E3C
:102972003E6EC80E3F6E420E406E39EC0FF039C00B
:10298200E0F03AC0E1F03BC0E2F03CC0E3F0000E00
:10299200526E000E536EE00E546E410E556EE0C044
:1029A20056F0E1C057F0E2C058F0E3C059F083ECB2
:1029B20016F0D8B002D0848001D08490900E00012D
:1029C200C66F010EC76F450EC86F100EC96FE0C00B
:1029D200CAF0E1C0CBF0E2C0CCF0E3C0CDF0ACEC89
:1029E2001AF0900E026E010E036E2CEC1AF0000E1D
:1029F200526E000E536EE00E546E410E556EE0C0E4
:102A020056F0E1C057F0E2C058F0E3C059F083EC51
:102A120016F0D8B00CD0900E0001C66F010EC76F31
:102A2200390EC86F100EC96FACEC1AF00BD0900EB5
:102A32000001C66F010EC76F500EC86F100EC96F2E
:102A4200ACEC1AF0900E026E010E036E2CEC1AF032
:102A5200900E0001C66F010EC76F010EC86F100EF7
:102A6200C96FACEC1AF0900E026E010E036E2CECE4
:102A72001AF09AEC19F0070E026ED00E016E82EC7B
:102A82001CF067D70F6E0F50D8A40AAE1AD007C039
:102A92000BF008C00CF009C00DF00AC00EF00B1EBE
:102AA2000C1E0D1E0E1E0B2A000E0C220D220E22D3
:102AB2000BC011F00CC012F00DC013F00EC014F0D8
:102AC20008D007C011F008C012F009C013F00AC004
:102AD20014F00750081009100A10D8A409D0000EEB
:102AE200076E000E086E000E096E000E0A6E1200CE
:102AF200960E106E06D0102AD8901432133212326B
:102B02001132000E11140B6E000E12140C6E000E18
:102B120013140D6EFE0E14140E6E0B500C100D10CD
:102B22000E10D8B40DD0E7D7102A010E1126000ED0
:102B3200122213221422D89014321332123211327A
:102B4200000E11140B6E000E12140C6E000E1314F4
:102B52000D6EFF0E14140E6E0B500C100D100E1095
:102B6200D8B407D0E1D71006D890113612361336F2
:102B7200143613BE03D0020E1060F5D710A0139EB8
:102B8200D890103210C00BF00C6A0D6A0E6A0BC09E
:102B92000EF00D6A0C6A0B6A0B5011120C501212D5
:102BA2000D5013120E5014120F50D8A40AAE01D0B9
:102BB200148E11C007F012C008F013C009F014C03F
:102BC2000AF01200000E166E000E156E000E0F6E49
:102BD200000E0E6E02D0084A092A010E146E08C0B9
:102BE200F6FF09C0F7FF0800F550200AD8B418D044
:102BF200F70E0A6EFF0E0B6E08C0F6FF09C0F7FF54
:102C02000800F5500C6E0D6A0A500C260B500D226E
:102C12000D5004E1050E0C5CD8A002D0000E146E1B
:102C220014C010F0116A10501110D8B408D0D3D7C4
:102C3200000E0F6E010E0E6E084A092A2ED008C031
:102C4200F6FF09C0F7FF0800F5500A6E0B6A0B5039
:102C5200000AD8A422D00A502B0AD8B4EDD7060A0B
:102C6200D8B4E6D71AD015C001F016C002F0000E93
:102C7200046E0A0E036E6FEC1CF008C0F6FF09C06A
:102C8200F7FF0800F550015E000E025A300E0124D3
:102C9200156E000E0220166ECFD7D00E0A6EFF0EF2
:102CA2000B6E08C0F6FF09C0F7FF0800F5500C6E66
:102CB2000D6A0A500C260B500D220D5006E10A0E29
:102CC2000C5CD8B002D0010E01D0000E126E136A55
:102CD20012501310D8A4C7D70E500F10D8A40DD07D
:102CE20015C00AF016C00BF00A1E0B1E0A4A0B2A68
:102CF2000AC008F00BC009F0120015C008F016C097
:102D020009F01200000E52145A6E000E53145B6E3C
:102D1200800E54145C6E7F0E55145D6E5A505B101B
:102D22005C105D10D8A408D0000E526E000E536ED7
:102D3200000E546E000E556E000E56145A6E000EA2
:102D420057145B6E800E58145C6E7F0E59145D6EC4
:102D52005A505B105C105D10D8A408D0000E566E5D
:102D6200000E576E000E586E000E596E55AE09D009
:102D7200526C531ED8B0532A541ED8B0542A800E17
:102D8200555659AE09D0566C571ED8B0572A581E00
:102D9200D8B0582A800E5956000E521A000E531AF5
:102DA200000E541A800E551A000E561A000E571AAB
:102DB200000E581A800E591A5650525C57505358EA
:102DC2005850545859505558D8B002D0D890120083
:102DD200D8801200DCC00BF0DDC00CF0DEC00DF0BC
:102DE200DFC00EF001C00BF002C00CF003C00DF00A
:102DF20004C00EF00BC005F00CC006F00DC007F0C9
:102E02000EC008F0180E05D0D890083207320632EC
:102E12000532E82EF9D70550096E0A6A09500A10E0
:102E2200D8A419D0D8900B34056E0C34066E0D342C
:102E3200076E0E34086E0550061007100810D8A44D
:102E420005D0000E026E020E016E1200000E026E1E
:102E5200030E016E120009280A10D8A41CD00BC060
:102E620005F00CC006F00DC007F00EC008F0090E08
:102E7200D8900536063607360836E82EF9D70550BB
:102E8200061007100810D8A402D0010E01D0000EBF
:102E9200016E026A1200000E026E040E016E120032
:102EA200033404340A6E0A50D8A409D0000E016E0D
:102EB200000E026E000E036E000E046E120001C0C0
:102EC20005F002C006F003C007F004C008F0200EAF
:102ED20005D0D8900832073206320532E82EF9D7EB
:102EE2000550096E038EFF0E0116FF0E0216FF0E2D
:102EF2000316000E0416960E0A5E0AAE0DD00A5094
:102F0200800A970FD8A0D2D7D89004320332023267
:102F120001320A3EF9D70DD01F0E0A6407D0C6D778
:102F2200D89001360236033604360A060A50D8A46F
:102F3200F7D70950D8B408D0041E031E021E016C34
:102F4200000E02220322042201C001F002C002F09C
:102F520003C003F004C004F0120001C008F002C074
:102F620009F003C00AF004C00BF00506D8A006065B
:102F720005280FE10628D8A40CD0000E026E000E20
:102F8200016E1200084A092A0A4A0B2A0506D8A02D
:102F9200060608C0D9FF09C0DAFFDF50D8B41CD03A
:102FA2000AC0F6FF0BC0F7FF0800F5500009D8B4BD
:102FB20013D005500610D8B40FD008C0D9FF09C0ED
:102FC200DAFFDF50076E0AC0F6FF0BC0F7FF0800FA
:102FD200F5500718D8B4D6D708C0D9FF09C0DAFF10
:102FE200DF50076E0AC0F6FF0BC0F7FF0800F5506E
:102FF200075C016E026AD8A0020612000350041098
:10300200D8B404D003500410D8A404D00150D8EC92
:103012001CF0120020EE04F00350D9260450DA22EC
:10302200DE50DE10D8B416D020EE04F00350D926BC
:103032000450DA2210EE02F00350E1260450E2229C
:10304200DE50E65CE650800A096EDE50800A0958BE
:10305200D8B0120020EE02F00350D9260450DA2232
:10306200DECF05F0DDCF06F003C0D9FF04C0DAFFE2
:10307200DECF07F0DDCF08F005500724D96E0650E9
:103082000820DA6E01C0DFFF20EE02F00350D926DD
:103092000450DA22DE2A000EDD2212007EA00AD0BF
:1030A20013C00AF014C00BF011C00CF012C00DF0E6
:1030B200C7EC1BF016BE05D015C01AF016C01BF0E7
:1030C20004D0000E1B6E000E1A6E000E196E000E5A
:1030D200186E0CD0000E026E200E016E11C003F0AD
:1030E20012C004F0FFEC17F0184A192A1A50185CA3
:1030F2001950800A176E1B50800A1758D8A0EAD7B9
:103102007EB00AD013C00AF014C00BF011C00CF04C
:1031120012C00DF0C7EC1BF013C001F014C002F096
:103122005AEC1CF01A500124116E1B500220126E30
:103132001200000E0114096E000E02140A6E800EB7
:1031420003140B6E7F0E04140C6E09500A100B1040
:103152000C10D8A408D0000E016E000E026E000EF4
:10316200036E000E046E000E0514096E000E0614A6
:103172000A6E800E07140B6E7F0E08140C6E095037
:103182000A100B100C10D8A408D0000E056E000E09
:10319200066E000E076E000E086E055001180AE159
:1031A2000650021807E10750031804E108500418FA
:1031B200D8B402D0D8901200D8801200000E066E49
:1031C20004AE06D0036C041ED8B0042A010E066EAB
:1031D20002AE06D0016C021ED8B0022A010E061AF7
:1031E200000E086E000E076E03500410D8B41CD0F7
:1031F200010E056E04D0D89003360436052A04AEBB
:10320200FAD7D890073608360350015C04500258AA
:10321200D8A005D00350015E0450025A0780D8900E
:1032220004320332052EEDD70650D8B404D0076C11
:10323200081ED8B0082A07C001F008C002F0120028
:10324200386E38506CEC1BF001C036F002C037F01B
:1032520036C001F037C002F0000E046E050E036E98
:103262006FEC1CF001C007F002C008F0000E08BEAF
:10327200FF0E096E0A6E010E43EC15F007C015F041
:1032820008C016F009C017F00AC018F0000E196E37
:10329200C00E1A6E7F0E1B6E440E1C6E68EC12F08E
:1032A20015C032F016C033F017C034F018C035F034
:1032B20032C02EF033C02FF034C030F035C031F0C0
:1032C2001200000E066E02AE06D0016C021ED8B0CD
:1032D200022A010E066E04AE04D0036C041ED8B09E
:1032E200042A03500410D8B418D0010E056E04D07D
:1032F200D89003360436052A04AEFAD70350015C8F
:1033020004500258D8A004D00350015E0450025A5F
:10331200D89004320332052EF1D70650D8B404D027
:10332200016C021ED8B0022A01C001F002C002F0F4
:103332001200010E0B6E010ED5EC1AF0500E0001B8
:10334200C66F010EC76F2C0EC86F100EC96FE0C09A
:10335200CAF0E1C0CBF0E2C0CCF0E3C0CDF0ACECFF
:103362001AF0500E136E010E146E95EC1CF0020E44
:103372000B6E010ED5EC1AF0000E0001C66F020EA4
:10338200C76F570EC86F100EC96FACEC1AF0000E63
:10339200136E020E146E95EC1CF01200126E1ED00B
:1033A200010E096E000EAAEC1BF0000E026E020E58
:1033B200016E82EC1CF01200020E0B6E010ED5ECB7
:1033C2001AF01200100E096E000EAAEC1BF0120089
:1033D20012C009F0010EAAEC1BF012001250106E7E
:1033E200116A1150000AD8A4F3D71050080AD8B4B1
:1033F200E9D7020AD8B4E0D7060AD8B4D1D7E8D7B9
:10340200AC0EF66E390EF76E000EF86E00EEE8F0B6
:1034120010EE04F00900F5CFEEFFE550E150FAE1BD
:1034220002EE00F0400EEE6AE806FDE101EE00F069
:10343200900EEE6AE806FDE100EED8F0100EEE6A9C
:10344200E806FDE17F6A7E6A7D6A7C6A000EF86E9C
:10345200000187EF14F015D002C0F6FF03C0F7FF9A
:10346200000EF86E0F0EF76403D00800F55005D079
:10347200F6CFE1FFF7CFE2FFE750C8EC1CF0024ABB
:10348200032A02C0F6FF03C0F7FF000EF86E0F0E0C
:10349200F76403D00800F55005D0F6CFE1FFF7CF6F
:1034A200E2FFE7500009D8B41200D6D776C07AF00E
:1034B20077C07BF0000E0001E56F000EE46F13D0C1
:1034C20074C06AF075C06BF07A0E6C6E000E6D6E91
:1034D20078C06EF079C06FF0F8EC0CF06A50000121
:1034E200E4276B50E5237AC0F6FF7BC0F7FF0800A4
:1034F200F5500009D8A4E4D7E4C074F0E5C075F033
:10350200120003C007F004C008F001C009F002C0B5
:103512000AF00750056E0850066E074A082A05C0D1
:10352200F6FF06C0F7FF000EF86E09C0D9FF0AC009
:10353200DAFF094A0A2A0F0EF76403D00800F55091
:1035420005D0F6CFE1FFF7CFE2FFE750DF6EDF50A5
:10355200D8B41200DED7CA0E0001D06F000ED16FB0
:10356200C6C0D2F0C7C0D3F0000ED56F000ED46F24
:10357200000ED76F000ED66FD20E746E000E756EEF
:10358200C8C076F0C9C077F0D00E786E000E796EA2
:1035920057EC1AF00001D451C625D96ED551C72176
:1035A200DA6E000EDF6E12000E6E09D0800E05D0AC
:1035B200C00E03D0900E01D0D00E0F6E14D00B505F
:1035C2000C6E0D6A0D50000AD8A40DD00C50010AE1
:1035D200D8B4ECD7030AD8B4EBD7010AD8B4EAD7E7
:1035E200070AD8B4E9D70E040F260F508009096ED6
:1035F200000EAAEC1BF0120083928396000E026E5C
:10360200190E016E82EC1CF0010E0B6E030EA7EC7C
:103612001CF00B2A030E0B64F9D7020EA7EC1CF068
:10362200000E0B6EE80E0B24D96EDA6A000EDA2257
:10363200DF50096E000EAAEC1BF00B2A030E0B647E
:10364200F1D71200BF0E096EFF0E0A6E07C00BF013
:1036520008C00CF009500B260A500C220C5006E14F
:103662001A0E0B5CD8B002D0010E01D0000E0D6E06
:103672000E6A0D500E10D8B406D0200E0710076E39
:103682000850086E120007C007F008C008F01200C8
:10369200000E561A000E571A000E581A800E591AAA
:1036A20052C001F053C002F054C003F055C004F000
:1036B20056C005F057C006F058C007F059C008F0D0
:1036C200E2EC10F001C052F002C053F003C054F01B
:1036D20004C055F01200076E07C003F0034603460C
:1036E200C2500318C30B0318C26EC28201D0040079
:1036F200C2B2FDD7C350C4CF03F0046A03C004F0C2
:10370200036A0310056E0450066E05C001F006C080
:1037120002F01200010E076E200E01180210D8B43A
:1037220014D0F70E036EFF0E046E01C005F002C046
:1037320006F00350052604500622065004E1050E49
:10374200055CD8A002D0000E076E07C001F0026A25
:1037520012000A6E0AB002D0839201D08382010E57
:1037620043EC1CF0010E43EC1CF0839609380F0B5E
:10377200A7EC1CF009500F0BA7EC1CF00A50D8B4B0
:103782001200320E0400E82EFDD71200000E106E59
:10379200000E0F6E0BD00EC001F0026A0CC003F0D7
:1037A2000DC004F0FFEC17F00F4A102A0F500A2444
:1037B200D96E10500B20DA6EDF500E6E0E50D8B458
:1037C2001200E9D7000EC16E000EC26E0C0EC16E61
:1037D200000E8D6E8DCF8CFF8CCF8BFF8BCF8AFF2F
:1037E2008ACF89FF92689368000E966E96CF95FFF6
:1037F200800E946E1200BF0E036EFF0E046E01C0A7
:1038020005F002C006F003500526045006220650B9
:1038120006E11A0E055CD8B002D0010E01D0000EEE
:10382200016E026A1200D00E036EFF0E046E01C01A
:1038320005F002C006F00350052604500622065089
:1038420006E10A0E055CD8B002D0010E01D0000ECE
:10385200016E026A12000150021003100410D8B463
:1038620008D0000E011A000E021A000E031A800E72
:10387200041A01C001F002C002F003C003F004C048
:1038820004F01200046E000E066E000E056E03D0E8
:103892000400054A062A0450016E026A0550015CC2
:1038A2000250800A036E0650800A0358D8A0120004
:1038B200EFD701C003F002C004F002D0014A022A8D
:1038C20001C0D9FF02C0DAFFDF50D8A4F7D70350F6
:1038D200015C016E04500258026E12000150030294
:1038E200F3CF05F0F4CF06F001500402F3500626A0
:1038F20002500302F350062605C001F006C002F092
:103902001200000E046E000E036E07D0C80E0400F3
:103912000400E82EFCD7034A042A0150035C02503B
:103922000458D8B01200F2D709D013C0D9FF14C07E
:10393200DAFFDF50CFEC19F0134A142A13C0D9FF73
:1039420014C0DAFFDF50D8B41200EFD7086E08C0F7
:1039520007F0073A835007180F0B0718836E010E02
:1039620043EC1CF08386040000F083961200B896A4
:10397200000EAC6E190EAF6E000EB06EAC84AC8A47
:10398200000EAB6EAB88AB8EAE50AE501200016E25
:1039920001D00400ACA2FDD701C0ADFF1200000EA1
:1039A200C26EC280890EC06E1200280C010612007F
:020000040020DA
:08000000FFFFFFFFFFFFFFFF00
:020000040030CA
:0E000000FF011F1FFF8385FF0FC00FE00F40A1
:00000001FF
